{
  "_format": "hh-sol-artifact-1",
  "contractName": "Verifier",
  "sourceName": "contracts/verifier.sol",
  "abi": [
    {
      "inputs": [
        {
          "components": [
            {
              "components": [
                {
                  "internalType": "uint256",
                  "name": "X",
                  "type": "uint256"
                },
                {
                  "internalType": "uint256",
                  "name": "Y",
                  "type": "uint256"
                }
              ],
              "internalType": "struct Pairing.G1Point",
              "name": "a",
              "type": "tuple"
            },
            {
              "components": [
                {
                  "internalType": "uint256[2]",
                  "name": "X",
                  "type": "uint256[2]"
                },
                {
                  "internalType": "uint256[2]",
                  "name": "Y",
                  "type": "uint256[2]"
                }
              ],
              "internalType": "struct Pairing.G2Point",
              "name": "b",
              "type": "tuple"
            },
            {
              "components": [
                {
                  "internalType": "uint256",
                  "name": "X",
                  "type": "uint256"
                },
                {
                  "internalType": "uint256",
                  "name": "Y",
                  "type": "uint256"
                }
              ],
              "internalType": "struct Pairing.G1Point",
              "name": "c",
              "type": "tuple"
            }
          ],
          "internalType": "struct Verifier.Proof",
          "name": "proof",
          "type": "tuple"
        },
        {
          "internalType": "uint256[3]",
          "name": "input",
          "type": "uint256[3]"
        }
      ],
      "name": "verifyTx",
      "outputs": [
        {
          "internalType": "bool",
          "name": "r",
          "type": "bool"
        }
      ],
      "stateMutability": "view",
      "type": "function"
    }
  ],
  "bytecode": "0x608060405234801561001057600080fd5b50611c8d806100206000396000f3fe608060405234801561001057600080fd5b506004361061002b5760003560e01c80630f9c5d4914610030575b600080fd5b61004a60048036038101906100459190611924565b610060565b6040516100579190611971565b60405180910390f35b600080600367ffffffffffffffff8111156100a4577f4e487b7100000000000000000000000000000000000000000000000000000000600052604160045260246000fd5b6040519080825280602002602001820160405280156100d25781602001602082028036833780820191505090505b50905060005b60038110156101775783816003811061011a577f4e487b7100000000000000000000000000000000000000000000000000000000600052603260045260246000fd5b6020020151828281518110610158577f4e487b7100000000000000000000000000000000000000000000000000000000600052603260045260246000fd5b602002602001018181525050808061016f90611b28565b9150506100d8565b50600061018482866101a0565b141561019457600191505061019a565b60009150505b92915050565b6000807f30644e72e131a029b85045b68181585d2833e84879b9709143e1f593f0000001905060006101d06103cf565b9050806080015151600186516101e691906119fd565b146101f057600080fd5b60006040518060400160405280600081526020016000815250905060005b865181101561031b5783878281518110610251577f4e487b7100000000000000000000000000000000000000000000000000000000600052603260045260246000fd5b60200260200101511061026357600080fd5b61030682610301856080015160018561027c91906119fd565b815181106102b3577f4e487b7100000000000000000000000000000000000000000000000000000000600052603260045260246000fd5b60200260200101518a85815181106102f4577f4e487b7100000000000000000000000000000000000000000000000000000000600052603260045260246000fd5b6020026020010151610980565b610a99565b9150808061031390611b28565b91505061020e565b5061036b81836080015160008151811061035e577f4e487b7100000000000000000000000000000000000000000000000000000000600052603260045260246000fd5b6020026020010151610a99565b90506103b18560000151866020015161038384610bfe565b85604001516103958a60400151610bfe565b87606001516103a78960000151610bfe565b8960200151610ca3565b6103c157600193505050506103c9565b600093505050505b92915050565b6103d76115f3565b60405180604001604052807f16b0532f1f6bc57a7f91991728914170b64263625874a43b14c239a55f862c0a81526020017e7fc8695d8be58de9a9c8a463d20f7d8c8b7b44bce3d7b52346233d880a175c8152508160000181905250604051806040016040528060405180604001604052807f1285aed2c541e11bb131176e1a11f48f39defc1f3bf4b334ec98236177d9d21781526020017f18274fec9e506c383b0fbec7709403bc8e3d8224391ad926b1641421c45c2d30815250815260200160405180604001604052807f06cd1b9c2b0720297f53df6a7af28c74e60d804cc8f06ce5d263ac40a39d207d81526020017f09161c8f3e2348939508f97647b647c6a8e0a3b34f3c05becb5db820807f58f38152508152508160200181905250604051806040016040528060405180604001604052807f10c197fd3bd706e6910b7fe6ee139207054d73ffd8f6b2c0003ebb35598ec19b81526020017f14490626d3bcbc92964fbe67a04a5d667ba2c4e9fff10d34cfc7c13776679c54815250815260200160405180604001604052807f1db3e309ae0608f1387092daa31c210d9a2c6def4f7c652c78a78b78bc6f2a1f81526020017f1916c6436d96acb9c996bca10b482db9021eab5f23dd60eee6a2494edfa0b4a48152508152508160400181905250604051806040016040528060405180604001604052807f2111ec75815c213fa9ffdac9d55d3f5a193462f8a8d8698c07bdf8d8c17e5c9a81526020017f2d00c13dc29f0b1e9742fc94c090d73a19aec3ae735c9338581b026cf493a382815250815260200160405180604001604052807f2af597119f7a79b8431e72fe7aa02df6939a0978221398b5ac32e25fc44f6c2281526020017f09dbd123adbc1bacbc857fff2d48cd208e7bb97f0b399c0f4d9444e46c0887a28152508152508160600181905250600467ffffffffffffffff8111156106c3577f4e487b7100000000000000000000000000000000000000000000000000000000600052604160045260246000fd5b6040519080825280602002602001820160405280156106fc57816020015b6106e961163a565b8152602001906001900390816106e15790505b50816080018190525060405180604001604052807f189cf459879bd1cee44c4023273987969aec4ef595d706179c10b5ae19a6f10b81526020017f27c71b48e90579d01db7116355567c2ee3fa1873e9c969f57055235f0b74c6bd8152508160800151600081518110610798577f4e487b7100000000000000000000000000000000000000000000000000000000600052603260045260246000fd5b602002602001018190525060405180604001604052807f077dc2892abb4110b5a9bfb5e85c0be7239c1fb18cb0672971fbd4ffcf8f070081526020017f1764dfc3d51fa4e3e2eafcf6c606744e01aa00e2711c4e43e34a1fe51646d89f8152508160800151600181518110610836577f4e487b7100000000000000000000000000000000000000000000000000000000600052603260045260246000fd5b602002602001018190525060405180604001604052807f035afec938792ce7ef708e880b3e10009ff021b272aebe7ee2a29b1509ebae5181526020017f1b48dd344ec66f1c8b785a0d366b1c143f1a2f3a71077d6c3aabcb36b5f45f9981525081608001516002815181106108d4577f4e487b7100000000000000000000000000000000000000000000000000000000600052603260045260246000fd5b602002602001018190525060405180604001604052807f2999e6e70d14bd6f82eec6043f7490e74543841e0f2d8da770a2f11edb5e103e81526020017f283f6f6f0bac7f9ea2ddb737dde9136cb145611699cebd3ac0918cf0b640b20e8152508160800151600381518110610972577f4e487b7100000000000000000000000000000000000000000000000000000000600052603260045260246000fd5b602002602001018190525090565b61098861163a565b610990611654565b8360000151816000600381106109cf577f4e487b7100000000000000000000000000000000000000000000000000000000600052603260045260246000fd5b602002018181525050836020015181600160038110610a17577f4e487b7100000000000000000000000000000000000000000000000000000000600052603260045260246000fd5b6020020181815250508281600260038110610a5b577f4e487b7100000000000000000000000000000000000000000000000000000000600052603260045260246000fd5b602002018181525050600060608360808460076107d05a03fa90508060008114610a8457610a86565bfe5b5080610a9157600080fd5b505092915050565b610aa161163a565b610aa9611676565b836000015181600060048110610ae8577f4e487b7100000000000000000000000000000000000000000000000000000000600052603260045260246000fd5b602002018181525050836020015181600160048110610b30577f4e487b7100000000000000000000000000000000000000000000000000000000600052603260045260246000fd5b602002018181525050826000015181600260048110610b78577f4e487b7100000000000000000000000000000000000000000000000000000000600052603260045260246000fd5b602002018181525050826020015181600360048110610bc0577f4e487b7100000000000000000000000000000000000000000000000000000000600052603260045260246000fd5b602002018181525050600060608360c08460066107d05a03fa90508060008114610be957610beb565bfe5b5080610bf657600080fd5b505092915050565b610c0661163a565b60007f30644e72e131a029b85045b68181585d97816a916871ca8d3c208c16d87cfd47905060008360000151148015610c43575060008360200151145b15610c67576040518060400160405280600081526020016000815250915050610c9e565b604051806040016040528084600001518152602001828560200151610c8c9190611b71565b83610c979190611aad565b8152509150505b919050565b600080600467ffffffffffffffff811115610ce7577f4e487b7100000000000000000000000000000000000000000000000000000000600052604160045260246000fd5b604051908082528060200260200182016040528015610d2057816020015b610d0d61163a565b815260200190600190039081610d055790505b5090506000600467ffffffffffffffff811115610d66577f4e487b7100000000000000000000000000000000000000000000000000000000600052604160045260246000fd5b604051908082528060200260200182016040528015610d9f57816020015b610d8c611698565b815260200190600190039081610d845790505b5090508a82600081518110610ddd577f4e487b7100000000000000000000000000000000000000000000000000000000600052603260045260246000fd5b60200260200101819052508882600181518110610e23577f4e487b7100000000000000000000000000000000000000000000000000000000600052603260045260246000fd5b60200260200101819052508682600281518110610e69577f4e487b7100000000000000000000000000000000000000000000000000000000600052603260045260246000fd5b60200260200101819052508482600381518110610eaf577f4e487b7100000000000000000000000000000000000000000000000000000000600052603260045260246000fd5b60200260200101819052508981600081518110610ef5577f4e487b7100000000000000000000000000000000000000000000000000000000600052603260045260246000fd5b60200260200101819052508781600181518110610f3b577f4e487b7100000000000000000000000000000000000000000000000000000000600052603260045260246000fd5b60200260200101819052508581600281518110610f81577f4e487b7100000000000000000000000000000000000000000000000000000000600052603260045260246000fd5b60200260200101819052508381600381518110610fc7577f4e487b7100000000000000000000000000000000000000000000000000000000600052603260045260246000fd5b6020026020010181905250610fdc8282610fec565b9250505098975050505050505050565b60008151835114610ffc57600080fd5b60008351905060006006826110119190611a53565b905060008167ffffffffffffffff811115611055577f4e487b7100000000000000000000000000000000000000000000000000000000600052604160045260246000fd5b6040519080825280602002602001820160405280156110835781602001602082028036833780820191505090505b50905060005b83811015611568578681815181106110ca577f4e487b7100000000000000000000000000000000000000000000000000000000600052603260045260246000fd5b6020026020010151600001518260006006846110e69190611a53565b6110f091906119fd565b81518110611127577f4e487b7100000000000000000000000000000000000000000000000000000000600052603260045260246000fd5b60200260200101818152505086818151811061116c577f4e487b7100000000000000000000000000000000000000000000000000000000600052603260045260246000fd5b6020026020010151602001518260016006846111889190611a53565b61119291906119fd565b815181106111c9577f4e487b7100000000000000000000000000000000000000000000000000000000600052603260045260246000fd5b60200260200101818152505085818151811061120e577f4e487b7100000000000000000000000000000000000000000000000000000000600052603260045260246000fd5b602002602001015160000151600160028110611253577f4e487b7100000000000000000000000000000000000000000000000000000000600052603260045260246000fd5b60200201518260026006846112689190611a53565b61127291906119fd565b815181106112a9577f4e487b7100000000000000000000000000000000000000000000000000000000600052603260045260246000fd5b6020026020010181815250508581815181106112ee577f4e487b7100000000000000000000000000000000000000000000000000000000600052603260045260246000fd5b602002602001015160000151600060028110611333577f4e487b7100000000000000000000000000000000000000000000000000000000600052603260045260246000fd5b60200201518260036006846113489190611a53565b61135291906119fd565b81518110611389577f4e487b7100000000000000000000000000000000000000000000000000000000600052603260045260246000fd5b6020026020010181815250508581815181106113ce577f4e487b7100000000000000000000000000000000000000000000000000000000600052603260045260246000fd5b602002602001015160200151600160028110611413577f4e487b7100000000000000000000000000000000000000000000000000000000600052603260045260246000fd5b60200201518260046006846114289190611a53565b61143291906119fd565b81518110611469577f4e487b7100000000000000000000000000000000000000000000000000000000600052603260045260246000fd5b6020026020010181815250508581815181106114ae577f4e487b7100000000000000000000000000000000000000000000000000000000600052603260045260246000fd5b6020026020010151602001516000600281106114f3577f4e487b7100000000000000000000000000000000000000000000000000000000600052603260045260246000fd5b60200201518260056006846115089190611a53565b61151291906119fd565b81518110611549577f4e487b7100000000000000000000000000000000000000000000000000000000600052603260045260246000fd5b602002602001018181525050808061156090611b28565b915050611089565b506115716116be565b6000602082602086026020860160086107d05a03fa9050806000811461159657611598565bfe5b50806115a357600080fd5b6000826000600181106115df577f4e487b7100000000000000000000000000000000000000000000000000000000600052603260045260246000fd5b602002015114159550505050505092915050565b6040518060a0016040528061160661163a565b8152602001611613611698565b8152602001611620611698565b815260200161162d611698565b8152602001606081525090565b604051806040016040528060008152602001600081525090565b6040518060600160405280600390602082028036833780820191505090505090565b6040518060800160405280600490602082028036833780820191505090505090565b60405180604001604052806116ab6116e0565b81526020016116b86116e0565b81525090565b6040518060200160405280600190602082028036833780820191505090505090565b6040518060400160405280600290602082028036833780820191505090505090565b6000611715611710846119b1565b61198c565b9050808285602086028201111561172b57600080fd5b60005b8581101561175b5781611741888261190f565b84526020840193506020830192505060018101905061172e565b5050509392505050565b6000611778611773846119d7565b61198c565b9050808285602086028201111561178e57600080fd5b60005b858110156117be57816117a4888261190f565b845260208401935060208301925050600181019050611791565b5050509392505050565b600082601f8301126117d957600080fd5b60026117e6848285611702565b91505092915050565b600082601f83011261180057600080fd5b600361180d848285611765565b91505092915050565b60006040828403121561182857600080fd5b611832604061198c565b905060006118428482850161190f565b60008301525060206118568482850161190f565b60208301525092915050565b60006080828403121561187457600080fd5b61187e604061198c565b9050600061188e848285016117c8565b60008301525060406118a2848285016117c8565b60208301525092915050565b600061010082840312156118c157600080fd5b6118cb606061198c565b905060006118db84828501611816565b60008301525060406118ef84828501611862565b60208301525060c061190384828501611816565b60408301525092915050565b60008135905061191e81611c40565b92915050565b600080610160838503121561193857600080fd5b6000611946858286016118ae565b925050610100611958858286016117ef565b9150509250929050565b61196b81611ae1565b82525050565b60006020820190506119866000830184611962565b92915050565b60006119966119a7565b90506119a28282611af7565b919050565b6000604051905090565b600067ffffffffffffffff8211156119cc576119cb611c00565b5b602082029050919050565b600067ffffffffffffffff8211156119f2576119f1611c00565b5b602082029050919050565b6000611a0882611aed565b9150611a1383611aed565b9250827fffffffffffffffffffffffffffffffffffffffffffffffffffffffffffffffff03821115611a4857611a47611ba2565b5b828201905092915050565b6000611a5e82611aed565b9150611a6983611aed565b9250817fffffffffffffffffffffffffffffffffffffffffffffffffffffffffffffffff0483118215151615611aa257611aa1611ba2565b5b828202905092915050565b6000611ab882611aed565b9150611ac383611aed565b925082821015611ad657611ad5611ba2565b5b828203905092915050565b60008115159050919050565b6000819050919050565b611b0082611c2f565b810181811067ffffffffffffffff82111715611b1f57611b1e611c00565b5b80604052505050565b6000611b3382611aed565b91507fffffffffffffffffffffffffffffffffffffffffffffffffffffffffffffffff821415611b6657611b65611ba2565b5b600182019050919050565b6000611b7c82611aed565b9150611b8783611aed565b925082611b9757611b96611bd1565b5b828206905092915050565b7f4e487b7100000000000000000000000000000000000000000000000000000000600052601160045260246000fd5b7f4e487b7100000000000000000000000000000000000000000000000000000000600052601260045260246000fd5b7f4e487b7100000000000000000000000000000000000000000000000000000000600052604160045260246000fd5b6000601f19601f8301169050919050565b611c4981611aed565b8114611c5457600080fd5b5056fea2646970667358221220831d104c3a7189dd9a539af45182892f5b350a566367855d76973020087f90cf64736f6c63430008040033",
  "linkReferences": {},
  "deployedLinkReferences": {}
}